{
  "_format": "hh-sol-artifact-1",
  "contractName": "BuyMeACoffee",
  "sourceName": "contracts/BuyMeACoffee.sol",
  "abi": [
    {
      "inputs": [],
      "stateMutability": "nonpayable",
      "type": "constructor"
    },
    {
      "anonymous": false,
      "inputs": [
        {
          "indexed": true,
          "internalType": "address",
          "name": "from",
          "type": "address"
        },
        {
          "indexed": false,
          "internalType": "uint256",
          "name": "timestamp",
          "type": "uint256"
        },
        {
          "indexed": false,
          "internalType": "string",
          "name": "name",
          "type": "string"
        },
        {
          "indexed": false,
          "internalType": "string",
          "name": "message",
          "type": "string"
        }
      ],
      "name": "NewMemo",
      "type": "event"
    },
    {
      "inputs": [
        {
          "internalType": "string",
          "name": "_name",
          "type": "string"
        },
        {
          "internalType": "string",
          "name": "_message",
          "type": "string"
        }
      ],
      "name": "buyCoffee",
      "outputs": [],
      "stateMutability": "payable",
      "type": "function"
    },
    {
      "inputs": [],
      "name": "getMemos",
      "outputs": [
        {
          "components": [
            {
              "internalType": "address",
              "name": "from",
              "type": "address"
            },
            {
              "internalType": "uint256",
              "name": "timestamp",
              "type": "uint256"
            },
            {
              "internalType": "string",
              "name": "name",
              "type": "string"
            },
            {
              "internalType": "string",
              "name": "message",
              "type": "string"
            }
          ],
          "internalType": "struct BuyMeACoffee.Memo[]",
          "name": "",
          "type": "tuple[]"
        }
      ],
      "stateMutability": "view",
      "type": "function"
    },
    {
      "inputs": [],
      "name": "withdrawTips",
      "outputs": [],
      "stateMutability": "nonpayable",
      "type": "function"
    }
  ],
  "bytecode": "0x608060405234801561001057600080fd5b5033600160006101000a81548173ffffffffffffffffffffffffffffffffffffffff021916908373ffffffffffffffffffffffffffffffffffffffff160217905550610c94806100616000396000f3fe6080604052600436106100345760003560e01c8063204206e1146100395780633aaa74b214610055578063865c51721461006c575b600080fd5b610053600480360381019061004e9190610727565b610097565b005b34801561006157600080fd5b5061006a61021f565b005b34801561007857600080fd5b50610081610347565b60405161008e91906109ad565b60405180910390f35b600034116100da576040517f08c379a00000000000000000000000000000000000000000000000000000000081526004016100d190610a2c565b60405180910390fd5b600060405180608001604052803373ffffffffffffffffffffffffffffffffffffffff16815260200142815260200184815260200183815250908060018154018082558091505060019003906000526020600020906004020160009091909190915060008201518160000160006101000a81548173ffffffffffffffffffffffffffffffffffffffff021916908373ffffffffffffffffffffffffffffffffffffffff1602179055506020820151816001015560408201518160020190805190602001906101a992919061052a565b5060608201518160030190805190602001906101c692919061052a565b5050503373ffffffffffffffffffffffffffffffffffffffff167fc56140e05f516509ae28110e0f72e17558a7561630dad2647c3ae87d986e365c42848460405161021393929190610a94565b60405180910390a25050565b3373ffffffffffffffffffffffffffffffffffffffff16600160009054906101000a900473ffffffffffffffffffffffffffffffffffffffff1673ffffffffffffffffffffffffffffffffffffffff16146102af576040517f08c379a00000000000000000000000000000000000000000000000000000000081526004016102a690610b4b565b60405180910390fd5b600160009054906101000a900473ffffffffffffffffffffffffffffffffffffffff1673ffffffffffffffffffffffffffffffffffffffff166108fc479081150290604051600060405180830381858888f19350505050610345576040517f08c379a000000000000000000000000000000000000000000000000000000000815260040161033c90610bdd565b60405180910390fd5b565b60606000805480602002602001604051908101604052809291908181526020016000905b8282101561052157838290600052602060002090600402016040518060800160405290816000820160009054906101000a900473ffffffffffffffffffffffffffffffffffffffff1673ffffffffffffffffffffffffffffffffffffffff1673ffffffffffffffffffffffffffffffffffffffff168152602001600182015481526020016002820180546103fe90610c2c565b80601f016020809104026020016040519081016040528092919081815260200182805461042a90610c2c565b80156104775780601f1061044c57610100808354040283529160200191610477565b820191906000526020600020905b81548152906001019060200180831161045a57829003601f168201915b5050505050815260200160038201805461049090610c2c565b80601f01602080910402602001604051908101604052809291908181526020018280546104bc90610c2c565b80156105095780601f106104de57610100808354040283529160200191610509565b820191906000526020600020905b8154815290600101906020018083116104ec57829003601f168201915b5050505050815250508152602001906001019061036b565b50505050905090565b82805461053690610c2c565b90600052602060002090601f016020900481019282610558576000855561059f565b82601f1061057157805160ff191683800117855561059f565b8280016001018555821561059f579182015b8281111561059e578251825591602001919060010190610583565b5b5090506105ac91906105b0565b5090565b5b808211156105c95760008160009055506001016105b1565b5090565b6000604051905090565b600080fd5b600080fd5b600080fd5b600080fd5b6000601f19601f8301169050919050565b7f4e487b7100000000000000000000000000000000000000000000000000000000600052604160045260246000fd5b610634826105eb565b810181811067ffffffffffffffff82111715610653576106526105fc565b5b80604052505050565b60006106666105cd565b9050610672828261062b565b919050565b600067ffffffffffffffff821115610692576106916105fc565b5b61069b826105eb565b9050602081019050919050565b82818337600083830152505050565b60006106ca6106c584610677565b61065c565b9050828152602081018484840111156106e6576106e56105e6565b5b6106f18482856106a8565b509392505050565b600082601f83011261070e5761070d6105e1565b5b813561071e8482602086016106b7565b91505092915050565b6000806040838503121561073e5761073d6105d7565b5b600083013567ffffffffffffffff81111561075c5761075b6105dc565b5b610768858286016106f9565b925050602083013567ffffffffffffffff811115610789576107886105dc565b5b610795858286016106f9565b9150509250929050565b600081519050919050565b600082825260208201905092915050565b6000819050602082019050919050565b600073ffffffffffffffffffffffffffffffffffffffff82169050919050565b60006107f6826107cb565b9050919050565b610806816107eb565b82525050565b6000819050919050565b61081f8161080c565b82525050565b600081519050919050565b600082825260208201905092915050565b60005b8381101561085f578082015181840152602081019050610844565b8381111561086e576000848401525b50505050565b600061087f82610825565b6108898185610830565b9350610899818560208601610841565b6108a2816105eb565b840191505092915050565b60006080830160008301516108c560008601826107fd565b5060208301516108d86020860182610816565b50604083015184820360408601526108f08282610874565b9150506060830151848203606086015261090a8282610874565b9150508091505092915050565b600061092383836108ad565b905092915050565b6000602082019050919050565b60006109438261079f565b61094d81856107aa565b93508360208202850161095f856107bb565b8060005b8581101561099b578484038952815161097c8582610917565b94506109878361092b565b925060208a01995050600181019050610963565b50829750879550505050505092915050565b600060208201905081810360008301526109c78184610938565b905092915050565b600082825260208201905092915050565b7f43616e27742062757920636f6666656520776974682030206574680000000000600082015250565b6000610a16601b836109cf565b9150610a21826109e0565b602082019050919050565b60006020820190508181036000830152610a4581610a09565b9050919050565b610a558161080c565b82525050565b6000610a6682610825565b610a7081856109cf565b9350610a80818560208601610841565b610a89816105eb565b840191505092915050565b6000606082019050610aa96000830186610a4c565b8181036020830152610abb8185610a5b565b90508181036040830152610acf8184610a5b565b9050949350505050565b7f4f6e6c79206f776e65722063616e2063616c6c20746869732066756e6374696f60008201527f6e00000000000000000000000000000000000000000000000000000000000000602082015250565b6000610b356021836109cf565b9150610b4082610ad9565b604082019050919050565b60006020820190508181036000830152610b6481610b28565b9050919050565b7f416e206572726f72206f63637572726564207768696c652073656e64696e672060008201527f746865206d6f6e657920746f20746865206f776e657200000000000000000000602082015250565b6000610bc76036836109cf565b9150610bd282610b6b565b604082019050919050565b60006020820190508181036000830152610bf681610bba565b9050919050565b7f4e487b7100000000000000000000000000000000000000000000000000000000600052602260045260246000fd5b60006002820490506001821680610c4457607f821691505b60208210811415610c5857610c57610bfd565b5b5091905056fea26469706673582212209f9ecbbf4914ad6e37850ce198e1fb1a8543a8425ba86303abca7e3a1d95b8fc64736f6c63430008090033",
  "linkReferences": {},
  "deployedLinkReferences": {}
}